:020000020000FC
:100000000C9402000FE50DBF04E00EBF40E050E08D
:100010000E94140040E050E164E30E94370060E079
:100020000E9414000C9412000F930FEF04BB01BB4D
:1000300000E00ABB45BB94990C942A00052F0F7170
:1000400002BB00000000000000000000000069B3D7
:100050000C943400052F0F71006402BB00000000F7
:10006000000069B30C943400959A0F9108950F9392
:10007000052F0071003011F40C944C000FEF04BBFD
:1000800001BB0ABB45BB6BBB052F0F71006202BBF6
:0C0090000000969A0C944C000F9108950B
:00000001FF
