:020000020000FC
:100000000EC00D004900200061006D00200053006B
:10001000610065006900640020003A0029000FE5D6
:100020000DBF04E00EBFA0D0F0E0E1E0E395459104
:10003000E39555910E94A900152F0E943F004A9513
:100040004030B1F70C94220084D010E838D081D031
:1000500053D02F9382D01F9112D0FFCF0AB3006FDD
:100060000ABB0BB30F70107F012B0BBBDB9A000098
:1000700000000000DB980AB30F700ABB08951F93BD
:100080000AB3006F0ABB0BB30170107F012B0BBBCF
:10009000D99ADB9A000000000000DB981F910F70D6
:1000A0001295107F012B0BBBD99ADB9A0000000040
:1000B0000000DB98D9980AB30F700ABB08951F930C
:1000C0000AB3006F0ABB0BB30170107F012B0BBB8F
:1000D000DB9A000000000000DB981F910F70129562
:1000E000107F012B0BBBDB9A000000000000DB98A7
:1000F0000AB30F700ABB08950AB30F700ABBD99AEE
:10010000DA9ADB9A000009B3007F202FDB98000009
:100110000000DB9A000009B3007F0295202BDB98DA
:10012000D998DA9808950AB30F700ABBD998DA9A69
:10013000DB9A000009B3007F202FDB98000000004D
:10014000DB9A000009B3007F0295202BDB98DA9838
:100150000895E9DF2078E9F70895222433243A94BA
:10016000F1F72A94D9F708950EE00ABBF6DF10E202
:1001700075DFEFDF18E2A3DFECDF1FE0A0DFE9DFD0
:0C01800011E09DDFE6DF16E09ADF089535
:00000001FF
