:020000020000FC
:040000000C940F004D
:100008000C940600F8940E9419000E9420000E9497
:10001800490078940895F89400E80BBF04E007BB02
:1000280000E00ABB78940C94170000E007BB0ABBF9
:10003800000046B359B308955E3F19F46FE30C947A
:1000480048005D3F19F466E00C9448005B3F19F4E2
:100058006BE50C944800573F19F46FE40C94480082
:100068005F3E19F466E60C9448005F3D19F46DE6AE
:100078000C9448005F3B19F46DE70C9448005F3717
:1000880019F467E00C94480008950FE008BB0FEFDF
:100098000ABB07BB6BBB07E008BB00E00ABB0CE070
:0800A80007BB00E008BB08954E
:00000001FF
