:020000020000FC
:040000000C948000DC
:100038000C944700042D069510E00A3020F0139523
:100048000A500C942100712E602E00E3600E700E91
:100058000E94130111E00E94C9000E941301172D8C
:100068000E94A9000E941301162D0E94A9000FEFFB
:100078001FE81A951030E9F70A950030C9F7062DE0
:10008800172D78940895F894602E712E07B1027098
:10009800023031F107B101700130B9F004B1402EDE
:1000A80005B1502E042D102D011724F404E002BBD5
:1000B8000C941E00122D011720F000E002BB0C94D6
:1000C8001E0000E202BB0C941E0004B1002E05B114
:1000D800102E07B111E01095012307B90C944300C5
:1000E80004B1202E05B1302E07B112E0109501237E
:1000F800016007B90C944300F89400E30FE50DBFC5
:1001080004E00EBF04E201BB00E000BF02E407B94F
:1001180008EC06B90E941E01789406B1006C06B975
:1001280000E588950C94910004B3006F04BB05B3F7
:100138000F70107F012B05BBAB9A00000000000078
:10014800AB9804B30F7004BB08951F9304B3006FFA
:1001580004BB05B30170107F012B05BBA99AAB9AAC
:10016800000000000000AB981F910F701295107FDF
:10017800012B05BBA99AAB9A000000000000AB98C0
:10018800A99804B30F7004BB08951F9304B3006FBC
:1001980004BB05B30170107F012B05BBAB9A0000AF
:1001A80000000000AB981F910F701295107F012B73
:1001B80005BBAB9A000000000000AB9804B30F70B9
:1001C80004BB089504B30F7004BBA99AAA9AAB9A0A
:1001D800000003B3007F202FAB9800000000AB9A0B
:1001E800000003B3007F0295202BAB98A998AA982A
:1001F800089504B30F7004BBA998AA9AAB9A00009B
:1002080003B3007F202FAB9800000000AB9A0000DA
:1002180003B3007F0295202BAB98AA980895E9DFD5
:100228002078E9F70895222433243A94F1F72A94A0
:10023800D9F708950EE004BBF6DF10E275DFEFDFB3
:1002480018E2A3DFECDF1FE0A0DFE9DF11E09DDFAC
:08025800E6DF16E09ADF0895CD
:00000001FF
